{
  "_format": "hh-sol-artifact-1",
  "contractName": "MyEpicGame",
  "sourceName": "contracts/MyEpicGame.sol",
  "abi": [
    {
      "inputs": [
        {
          "internalType": "string[]",
          "name": "characterNames",
          "type": "string[]"
        },
        {
          "internalType": "string[]",
          "name": "characterImageURIs",
          "type": "string[]"
        },
        {
          "internalType": "uint256[]",
          "name": "characterHp",
          "type": "uint256[]"
        },
        {
          "internalType": "uint256[]",
          "name": "characterAttackDmg",
          "type": "uint256[]"
        },
        {
          "internalType": "string",
          "name": "bossName",
          "type": "string"
        },
        {
          "internalType": "string",
          "name": "bossImageUri",
          "type": "string"
        },
        {
          "internalType": "uint256",
          "name": "bossHp",
          "type": "uint256"
        },
        {
          "internalType": "uint256",
          "name": "bossAttackDamage",
          "type": "uint256"
        }
      ],
      "stateMutability": "nonpayable",
      "type": "constructor"
    },
    {
      "anonymous": false,
      "inputs": [
        {
          "indexed": true,
          "internalType": "address",
          "name": "owner",
          "type": "address"
        },
        {
          "indexed": true,
          "internalType": "address",
          "name": "approved",
          "type": "address"
        },
        {
          "indexed": true,
          "internalType": "uint256",
          "name": "tokenId",
          "type": "uint256"
        }
      ],
      "name": "Approval",
      "type": "event"
    },
    {
      "anonymous": false,
      "inputs": [
        {
          "indexed": true,
          "internalType": "address",
          "name": "owner",
          "type": "address"
        },
        {
          "indexed": true,
          "internalType": "address",
          "name": "operator",
          "type": "address"
        },
        {
          "indexed": false,
          "internalType": "bool",
          "name": "approved",
          "type": "bool"
        }
      ],
      "name": "ApprovalForAll",
      "type": "event"
    },
    {
      "anonymous": false,
      "inputs": [
        {
          "indexed": false,
          "internalType": "address",
          "name": "sender",
          "type": "address"
        },
        {
          "indexed": false,
          "internalType": "uint256",
          "name": "newBossHp",
          "type": "uint256"
        },
        {
          "indexed": false,
          "internalType": "uint256",
          "name": "newPlayerHp",
          "type": "uint256"
        }
      ],
      "name": "AttackComplete",
      "type": "event"
    },
    {
      "anonymous": false,
      "inputs": [
        {
          "indexed": false,
          "internalType": "address",
          "name": "sender",
          "type": "address"
        },
        {
          "indexed": false,
          "internalType": "uint256",
          "name": "tokenId",
          "type": "uint256"
        },
        {
          "indexed": false,
          "internalType": "uint256",
          "name": "characterIndex",
          "type": "uint256"
        }
      ],
      "name": "CharacterNFTMinted",
      "type": "event"
    },
    {
      "anonymous": false,
      "inputs": [
        {
          "indexed": true,
          "internalType": "address",
          "name": "from",
          "type": "address"
        },
        {
          "indexed": true,
          "internalType": "address",
          "name": "to",
          "type": "address"
        },
        {
          "indexed": true,
          "internalType": "uint256",
          "name": "tokenId",
          "type": "uint256"
        }
      ],
      "name": "Transfer",
      "type": "event"
    },
    {
      "inputs": [
        {
          "internalType": "address",
          "name": "to",
          "type": "address"
        },
        {
          "internalType": "uint256",
          "name": "tokenId",
          "type": "uint256"
        }
      ],
      "name": "approve",
      "outputs": [],
      "stateMutability": "nonpayable",
      "type": "function"
    },
    {
      "inputs": [],
      "name": "attackBoss",
      "outputs": [],
      "stateMutability": "nonpayable",
      "type": "function"
    },
    {
      "inputs": [
        {
          "internalType": "address",
          "name": "owner",
          "type": "address"
        }
      ],
      "name": "balanceOf",
      "outputs": [
        {
          "internalType": "uint256",
          "name": "",
          "type": "uint256"
        }
      ],
      "stateMutability": "view",
      "type": "function"
    },
    {
      "inputs": [],
      "name": "bigboss",
      "outputs": [
        {
          "internalType": "string",
          "name": "name",
          "type": "string"
        },
        {
          "internalType": "string",
          "name": "imageURI",
          "type": "string"
        },
        {
          "internalType": "uint256",
          "name": "hp",
          "type": "uint256"
        },
        {
          "internalType": "uint256",
          "name": "maxHp",
          "type": "uint256"
        },
        {
          "internalType": "uint256",
          "name": "attackDamage",
          "type": "uint256"
        }
      ],
      "stateMutability": "view",
      "type": "function"
    },
    {
      "inputs": [],
      "name": "checkIfUserHasNft",
      "outputs": [
        {
          "components": [
            {
              "internalType": "uint256",
              "name": "characterIndex",
              "type": "uint256"
            },
            {
              "internalType": "string",
              "name": "name",
              "type": "string"
            },
            {
              "internalType": "string",
              "name": "imageURI",
              "type": "string"
            },
            {
              "internalType": "uint256",
              "name": "hp",
              "type": "uint256"
            },
            {
              "internalType": "uint256",
              "name": "maxHp",
              "type": "uint256"
            },
            {
              "internalType": "uint256",
              "name": "attackDamage",
              "type": "uint256"
            }
          ],
          "internalType": "struct MyEpicGame.CharacterAttributes",
          "name": "",
          "type": "tuple"
        }
      ],
      "stateMutability": "view",
      "type": "function"
    },
    {
      "inputs": [],
      "name": "getAllDefaultCharacters",
      "outputs": [
        {
          "components": [
            {
              "internalType": "uint256",
              "name": "characterIndex",
              "type": "uint256"
            },
            {
              "internalType": "string",
              "name": "name",
              "type": "string"
            },
            {
              "internalType": "string",
              "name": "imageURI",
              "type": "string"
            },
            {
              "internalType": "uint256",
              "name": "hp",
              "type": "uint256"
            },
            {
              "internalType": "uint256",
              "name": "maxHp",
              "type": "uint256"
            },
            {
              "internalType": "uint256",
              "name": "attackDamage",
              "type": "uint256"
            }
          ],
          "internalType": "struct MyEpicGame.CharacterAttributes[]",
          "name": "",
          "type": "tuple[]"
        }
      ],
      "stateMutability": "view",
      "type": "function"
    },
    {
      "inputs": [
        {
          "internalType": "uint256",
          "name": "tokenId",
          "type": "uint256"
        }
      ],
      "name": "getApproved",
      "outputs": [
        {
          "internalType": "address",
          "name": "",
          "type": "address"
        }
      ],
      "stateMutability": "view",
      "type": "function"
    },
    {
      "inputs": [],
      "name": "getBigBoss",
      "outputs": [
        {
          "components": [
            {
              "internalType": "string",
              "name": "name",
              "type": "string"
            },
            {
              "internalType": "string",
              "name": "imageURI",
              "type": "string"
            },
            {
              "internalType": "uint256",
              "name": "hp",
              "type": "uint256"
            },
            {
              "internalType": "uint256",
              "name": "maxHp",
              "type": "uint256"
            },
            {
              "internalType": "uint256",
              "name": "attackDamage",
              "type": "uint256"
            }
          ],
          "internalType": "struct MyEpicGame.BigBoss",
          "name": "",
          "type": "tuple"
        }
      ],
      "stateMutability": "view",
      "type": "function"
    },
    {
      "inputs": [
        {
          "internalType": "address",
          "name": "owner",
          "type": "address"
        },
        {
          "internalType": "address",
          "name": "operator",
          "type": "address"
        }
      ],
      "name": "isApprovedForAll",
      "outputs": [
        {
          "internalType": "bool",
          "name": "",
          "type": "bool"
        }
      ],
      "stateMutability": "view",
      "type": "function"
    },
    {
      "inputs": [
        {
          "internalType": "uint256",
          "name": "_characterIndex",
          "type": "uint256"
        }
      ],
      "name": "mintCharacterNFT",
      "outputs": [],
      "stateMutability": "nonpayable",
      "type": "function"
    },
    {
      "inputs": [],
      "name": "name",
      "outputs": [
        {
          "internalType": "string",
          "name": "",
          "type": "string"
        }
      ],
      "stateMutability": "view",
      "type": "function"
    },
    {
      "inputs": [
        {
          "internalType": "uint256",
          "name": "",
          "type": "uint256"
        }
      ],
      "name": "nftHolderAttributes",
      "outputs": [
        {
          "internalType": "uint256",
          "name": "characterIndex",
          "type": "uint256"
        },
        {
          "internalType": "string",
          "name": "name",
          "type": "string"
        },
        {
          "internalType": "string",
          "name": "imageURI",
          "type": "string"
        },
        {
          "internalType": "uint256",
          "name": "hp",
          "type": "uint256"
        },
        {
          "internalType": "uint256",
          "name": "maxHp",
          "type": "uint256"
        },
        {
          "internalType": "uint256",
          "name": "attackDamage",
          "type": "uint256"
        }
      ],
      "stateMutability": "view",
      "type": "function"
    },
    {
      "inputs": [
        {
          "internalType": "address",
          "name": "",
          "type": "address"
        }
      ],
      "name": "nftHolders",
      "outputs": [
        {
          "internalType": "uint256",
          "name": "",
          "type": "uint256"
        }
      ],
      "stateMutability": "view",
      "type": "function"
    },
    {
      "inputs": [
        {
          "internalType": "uint256",
          "name": "tokenId",
          "type": "uint256"
        }
      ],
      "name": "ownerOf",
      "outputs": [
        {
          "internalType": "address",
          "name": "",
          "type": "address"
        }
      ],
      "stateMutability": "view",
      "type": "function"
    },
    {
      "inputs": [
        {
          "internalType": "address",
          "name": "from",
          "type": "address"
        },
        {
          "internalType": "address",
          "name": "to",
          "type": "address"
        },
        {
          "internalType": "uint256",
          "name": "tokenId",
          "type": "uint256"
        }
      ],
      "name": "safeTransferFrom",
      "outputs": [],
      "stateMutability": "nonpayable",
      "type": "function"
    },
    {
      "inputs": [
        {
          "internalType": "address",
          "name": "from",
          "type": "address"
        },
        {
          "internalType": "address",
          "name": "to",
          "type": "address"
        },
        {
          "internalType": "uint256",
          "name": "tokenId",
          "type": "uint256"
        },
        {
          "internalType": "bytes",
          "name": "data",
          "type": "bytes"
        }
      ],
      "name": "safeTransferFrom",
      "outputs": [],
      "stateMutability": "nonpayable",
      "type": "function"
    },
    {
      "inputs": [
        {
          "internalType": "address",
          "name": "operator",
          "type": "address"
        },
        {
          "internalType": "bool",
          "name": "approved",
          "type": "bool"
        }
      ],
      "name": "setApprovalForAll",
      "outputs": [],
      "stateMutability": "nonpayable",
      "type": "function"
    },
    {
      "inputs": [
        {
          "internalType": "bytes4",
          "name": "interfaceId",
          "type": "bytes4"
        }
      ],
      "name": "supportsInterface",
      "outputs": [
        {
          "internalType": "bool",
          "name": "",
          "type": "bool"
        }
      ],
      "stateMutability": "view",
      "type": "function"
    },
    {
      "inputs": [],
      "name": "symbol",
      "outputs": [
        {
          "internalType": "string",
          "name": "",
          "type": "string"
        }
      ],
      "stateMutability": "view",
      "type": "function"
    },
    {
      "inputs": [
        {
          "internalType": "uint256",
          "name": "_tokenId",
          "type": "uint256"
        }
      ],
      "name": "tokenURI",
      "outputs": [
        {
          "internalType": "string",
          "name": "",
          "type": "string"
        }
      ],
      "stateMutability": "view",
      "type": "function"
    },
    {
      "inputs": [
        {
          "internalType": "address",
          "name": "from",
          "type": "address"
        },
        {
          "internalType": "address",
          "name": "to",
          "type": "address"
        },
        {
          "internalType": "uint256",
          "name": "tokenId",
          "type": "uint256"
        }
      ],
      "name": "transferFrom",
      "outputs": [],
      "stateMutability": "nonpayable",
      "type": "function"
    }
  ],
  "bytecode": "0x60806040523480156200001157600080fd5b50604051620055ae380380620055ae833981810160405281019062000037919062000a5a565b6040518060400160405280600681526020017f4865726f657300000000000000000000000000000000000000000000000000008152506040518060400160405280600481526020017f4845524f000000000000000000000000000000000000000000000000000000008152508160009080519060200190620000bb929190620007ed565b508060019080519060200190620000d4929190620007ed565b50505060005b8851811015620004f35760076040518060c001604052808381526020018b848151811062000131577f4e487b7100000000000000000000000000000000000000000000000000000000600052603260045260246000fd5b602002602001015181526020018a848151811062000178577f4e487b7100000000000000000000000000000000000000000000000000000000600052603260045260246000fd5b60200260200101518152602001898481518110620001bf577f4e487b7100000000000000000000000000000000000000000000000000000000600052603260045260246000fd5b6020026020010151815260200189848151811062000206577f4e487b7100000000000000000000000000000000000000000000000000000000600052603260045260246000fd5b602002602001015181526020018884815181106200024d577f4e487b7100000000000000000000000000000000000000000000000000000000600052603260045260246000fd5b60200260200101518152509080600181540180825580915050600190039060005260206000209060060201600090919091909150600082015181600001556020820151816001019080519060200190620002a9929190620007ed565b506040820151816002019080519060200190620002c8929190620007ed565b50606082015181600301556080820151816004015560a08201518160050155505060006007828154811062000326577f4e487b7100000000000000000000000000000000000000000000000000000000600052603260045260246000fd5b90600052602060002090600602016040518060c0016040529081600082015481526020016001820180546200035b9062000de5565b80601f0160208091040260200160405190810160405280929190818152602001828054620003899062000de5565b8015620003da5780601f10620003ae57610100808354040283529160200191620003da565b820191906000526020600020905b815481529060010190602001808311620003bc57829003601f168201915b50505050508152602001600282018054620003f59062000de5565b80601f0160208091040260200160405190810160405280929190818152602001828054620004239062000de5565b8015620004745780601f10620004485761010080835404028352916020019162000474565b820191906000526020600020905b8154815290600101906020018083116200045657829003601f168201915b5050505050815260200160038201548152602001600482015481526020016005820154815250509050620004db6040518060600160405280602581526020016200555e602591398260200151836060015184604001516200070260201b62001b9d1760201c565b50600181620004eb919062000d48565b9050620000da565b506040518060a0016040528085815260200184815260200183815260200183815260200182815250600a60008201518160000190805190602001906200053b929190620007ed565b5060208201518160010190805190602001906200055a929190620007ed565b50604082015181600201556060820151816003015560808201518160040155905050620006dd6040518060600160405280602b815260200162005583602b9139600a6000018054620005ac9062000de5565b80601f0160208091040260200160405190810160405280929190818152602001828054620005da9062000de5565b80156200062b5780601f10620005ff576101008083540402835291602001916200062b565b820191906000526020600020905b8154815290600101906020018083116200060d57829003601f168201915b5050505050600a60020154600a6001018054620006489062000de5565b80601f0160208091040260200160405190810160405280929190818152602001828054620006769062000de5565b8015620006c75780601f106200069b57610100808354040283529160200191620006c7565b820191906000526020600020905b815481529060010190602001808311620006a957829003601f168201915b50505050506200070260201b62001b9d1760201c565b620006f46006620007ae60201b62001c3f1760201c565b505050505050505062000ed3565b620007a8848484846040516024016200071f949392919062000c05565b6040516020818303038152906040527f8d142cdd000000000000000000000000000000000000000000000000000000007bffffffffffffffffffffffffffffffffffffffffffffffffffffffff19166020820180517bffffffffffffffffffffffffffffffffffffffffffffffffffffffff8381831617835250505050620007c460201b60201c565b50505050565b6001816000016000828254019250508190555050565b60008151905060006a636f6e736f6c652e6c6f679050602083016000808483855afa5050505050565b828054620007fb9062000de5565b90600052602060002090601f0160209004810192826200081f57600085556200086b565b82601f106200083a57805160ff19168380011785556200086b565b828001600101855582156200086b579182015b828111156200086a5782518255916020019190600101906200084d565b5b5090506200087a91906200087e565b5090565b5b80821115620008995760008160009055506001016200087f565b5090565b6000620008b4620008ae8462000c9b565b62000c67565b9050808382526020820190508260005b85811015620008f85781518501620008dd888262000a16565b845260208401935060208301925050600181019050620008c4565b5050509392505050565b600062000919620009138462000cca565b62000c67565b905080838252602082019050828560208602820111156200093957600080fd5b60005b858110156200096d578162000952888262000a43565b8452602084019350602083019250506001810190506200093c565b5050509392505050565b60006200098e620009888462000cf9565b62000c67565b905082815260208101848484011115620009a757600080fd5b620009b484828562000daf565b509392505050565b600082601f830112620009ce57600080fd5b8151620009e08482602086016200089d565b91505092915050565b600082601f830112620009fb57600080fd5b815162000a0d84826020860162000902565b91505092915050565b600082601f83011262000a2857600080fd5b815162000a3a84826020860162000977565b91505092915050565b60008151905062000a548162000eb9565b92915050565b600080600080600080600080610100898b03121562000a7857600080fd5b600089015167ffffffffffffffff81111562000a9357600080fd5b62000aa18b828c01620009bc565b985050602089015167ffffffffffffffff81111562000abf57600080fd5b62000acd8b828c01620009bc565b975050604089015167ffffffffffffffff81111562000aeb57600080fd5b62000af98b828c01620009e9565b965050606089015167ffffffffffffffff81111562000b1757600080fd5b62000b258b828c01620009e9565b955050608089015167ffffffffffffffff81111562000b4357600080fd5b62000b518b828c0162000a16565b94505060a089015167ffffffffffffffff81111562000b6f57600080fd5b62000b7d8b828c0162000a16565b93505060c062000b908b828c0162000a43565b92505060e062000ba38b828c0162000a43565b9150509295985092959890939650565b600062000bc08262000d2c565b62000bcc818562000d37565b935062000bde81856020860162000daf565b62000be98162000ea8565b840191505092915050565b62000bff8162000da5565b82525050565b6000608082019050818103600083015262000c21818762000bb3565b9050818103602083015262000c37818662000bb3565b905062000c48604083018562000bf4565b818103606083015262000c5c818462000bb3565b905095945050505050565b6000604051905081810181811067ffffffffffffffff8211171562000c915762000c9062000e79565b5b8060405250919050565b600067ffffffffffffffff82111562000cb95762000cb862000e79565b5b602082029050602081019050919050565b600067ffffffffffffffff82111562000ce85762000ce762000e79565b5b602082029050602081019050919050565b600067ffffffffffffffff82111562000d175762000d1662000e79565b5b601f19601f8301169050602081019050919050565b600081519050919050565b600082825260208201905092915050565b600062000d558262000da5565b915062000d628362000da5565b9250827fffffffffffffffffffffffffffffffffffffffffffffffffffffffffffffffff0382111562000d9a5762000d9962000e1b565b5b828201905092915050565b6000819050919050565b60005b8381101562000dcf57808201518184015260208101905062000db2565b8381111562000ddf576000848401525b50505050565b6000600282049050600182168062000dfe57607f821691505b6020821081141562000e155762000e1462000e4a565b5b50919050565b7f4e487b7100000000000000000000000000000000000000000000000000000000600052601160045260246000fd5b7f4e487b7100000000000000000000000000000000000000000000000000000000600052602260045260246000fd5b7f4e487b7100000000000000000000000000000000000000000000000000000000600052604160045260246000fd5b6000601f19601f8301169050919050565b62000ec48162000da5565b811462000ed057600080fd5b50565b61467b8062000ee36000396000f3fe608060405234801561001057600080fd5b50600436106101375760003560e01c80638d028f9d116100b8578063b953084e1161007c578063b953084e14610369578063c732d39614610387578063c87b56dd146103a5578063d4f24c5b146103d5578063e985e9c5146103df578063f8b81ef71461040f57610137565b80638d028f9d146102bc57806395d89b41146102de57806398da4c95146102fc578063a22cb46514610331578063b88d4fde1461034d57610137565b806323b872dd116100ff57806323b872dd146101f457806342842e0e146102105780636352211e1461022c57806370a082311461025c5780637df124a11461028c57610137565b806301ffc9a71461013c5780630665f9611461016c57806306fdde031461018a578063081812fc146101a8578063095ea7b3146101d8575b600080fd5b6101566004803603810190610151919061302e565b61042b565b6040516101639190613c9c565b60405180910390f35b61017461050d565b6040516101819190613ff5565b60405180910390f35b610192610669565b60405161019f9190613cb7565b60405180910390f35b6101c260048036038101906101bd9190613080565b6106fb565b6040516101cf9190613bdc565b60405180910390f35b6101f260048036038101906101ed9190612ff2565b610741565b005b61020e60048036038101906102099190612eec565b610859565b005b61022a60048036038101906102259190612eec565b6108b9565b005b61024660048036038101906102419190613080565b6108d9565b6040516102539190613bdc565b60405180910390f35b61027660048036038101906102719190612e87565b61098b565b6040516102839190614039565b60405180910390f35b6102a660048036038101906102a19190612e87565b610a43565b6040516102b39190614039565b60405180910390f35b6102c4610a5b565b6040516102d5959493929190613d86565b60405180910390f35b6102e6610b8f565b6040516102f39190613cb7565b60405180910390f35b61031660048036038101906103119190613080565b610c21565b60405161032896959493929190614054565b60405180910390f35b61034b60048036038101906103469190612fb6565b610d6d565b005b61036760048036038101906103629190612f3b565b610d83565b005b610371610de5565b60405161037e9190613c7a565b60405180910390f35b61038f610f90565b60405161039c9190614017565b60405180910390f35b6103bf60048036038101906103ba9190613080565b611168565b6040516103cc9190613cb7565b60405180910390f35b6103dd611383565b005b6103f960048036038101906103f49190612eb0565b611715565b6040516104069190613c9c565b60405180910390f35b61042960048036038101906104249190613080565b6117a9565b005b60007f80ac58cd000000000000000000000000000000000000000000000000000000007bffffffffffffffffffffffffffffffffffffffffffffffffffffffff1916827bffffffffffffffffffffffffffffffffffffffffffffffffffffffff191614806104f657507f5b5e139f000000000000000000000000000000000000000000000000000000007bffffffffffffffffffffffffffffffffffffffffffffffffffffffff1916827bffffffffffffffffffffffffffffffffffffffffffffffffffffffff1916145b80610506575061050582611c55565b5b9050919050565b610515612cae565b600a6040518060a00160405290816000820180546105329061437c565b80601f016020809104026020016040519081016040528092919081815260200182805461055e9061437c565b80156105ab5780601f10610580576101008083540402835291602001916105ab565b820191906000526020600020905b81548152906001019060200180831161058e57829003601f168201915b505050505081526020016001820180546105c49061437c565b80601f01602080910402602001604051908101604052809291908181526020018280546105f09061437c565b801561063d5780601f106106125761010080835404028352916020019161063d565b820191906000526020600020905b81548152906001019060200180831161062057829003601f168201915b505050505081526020016002820154815260200160038201548152602001600482015481525050905090565b6060600080546106789061437c565b80601f01602080910402602001604051908101604052809291908181526020018280546106a49061437c565b80156106f15780601f106106c6576101008083540402835291602001916106f1565b820191906000526020600020905b8154815290600101906020018083116106d457829003601f168201915b5050505050905090565b600061070682611cbf565b6004600083815260200190815260200160002060009054906101000a900473ffffffffffffffffffffffffffffffffffffffff169050919050565b600061074c826108d9565b90508073ffffffffffffffffffffffffffffffffffffffff168373ffffffffffffffffffffffffffffffffffffffff1614156107bd576040517f08c379a00000000000000000000000000000000000000000000000000000000081526004016107b490613f75565b60405180910390fd5b8073ffffffffffffffffffffffffffffffffffffffff166107dc611d0a565b73ffffffffffffffffffffffffffffffffffffffff16148061080b575061080a81610805611d0a565b611715565b5b61084a576040517f08c379a000000000000000000000000000000000000000000000000000000000815260040161084190613f15565b60405180910390fd5b6108548383611d12565b505050565b61086a610864611d0a565b82611dcb565b6108a9576040517f08c379a00000000000000000000000000000000000000000000000000000000081526004016108a090613fd5565b60405180910390fd5b6108b4838383611e60565b505050565b6108d483838360405180602001604052806000815250610d83565b505050565b6000806002600084815260200190815260200160002060009054906101000a900473ffffffffffffffffffffffffffffffffffffffff169050600073ffffffffffffffffffffffffffffffffffffffff168173ffffffffffffffffffffffffffffffffffffffff161415610982576040517f08c379a000000000000000000000000000000000000000000000000000000000815260040161097990613f55565b60405180910390fd5b80915050919050565b60008073ffffffffffffffffffffffffffffffffffffffff168273ffffffffffffffffffffffffffffffffffffffff1614156109fc576040517f08c379a00000000000000000000000000000000000000000000000000000000081526004016109f390613ef5565b60405180910390fd5b600360008373ffffffffffffffffffffffffffffffffffffffff1673ffffffffffffffffffffffffffffffffffffffff168152602001908152602001600020549050919050565b60096020528060005260406000206000915090505481565b600a806000018054610a6c9061437c565b80601f0160208091040260200160405190810160405280929190818152602001828054610a989061437c565b8015610ae55780601f10610aba57610100808354040283529160200191610ae5565b820191906000526020600020905b815481529060010190602001808311610ac857829003601f168201915b505050505090806001018054610afa9061437c565b80601f0160208091040260200160405190810160405280929190818152602001828054610b269061437c565b8015610b735780601f10610b4857610100808354040283529160200191610b73565b820191906000526020600020905b815481529060010190602001808311610b5657829003601f168201915b5050505050908060020154908060030154908060040154905085565b606060018054610b9e9061437c565b80601f0160208091040260200160405190810160405280929190818152602001828054610bca9061437c565b8015610c175780601f10610bec57610100808354040283529160200191610c17565b820191906000526020600020905b815481529060010190602001808311610bfa57829003601f168201915b5050505050905090565b6008602052806000526040600020600091509050806000015490806001018054610c4a9061437c565b80601f0160208091040260200160405190810160405280929190818152602001828054610c769061437c565b8015610cc35780601f10610c9857610100808354040283529160200191610cc3565b820191906000526020600020905b815481529060010190602001808311610ca657829003601f168201915b505050505090806002018054610cd89061437c565b80601f0160208091040260200160405190810160405280929190818152602001828054610d049061437c565b8015610d515780601f10610d2657610100808354040283529160200191610d51565b820191906000526020600020905b815481529060010190602001808311610d3457829003601f168201915b5050505050908060030154908060040154908060050154905086565b610d7f610d78611d0a565b83836120c7565b5050565b610d94610d8e611d0a565b83611dcb565b610dd3576040517f08c379a0000000000000000000000000000000000000000000000000000000008152600401610dca90613fd5565b60405180910390fd5b610ddf84848484612234565b50505050565b60606007805480602002602001604051908101604052809291908181526020016000905b82821015610f8757838290600052602060002090600602016040518060c001604052908160008201548152602001600182018054610e469061437c565b80601f0160208091040260200160405190810160405280929190818152602001828054610e729061437c565b8015610ebf5780601f10610e9457610100808354040283529160200191610ebf565b820191906000526020600020905b815481529060010190602001808311610ea257829003601f168201915b50505050508152602001600282018054610ed89061437c565b80601f0160208091040260200160405190810160405280929190818152602001828054610f049061437c565b8015610f515780601f10610f2657610100808354040283529160200191610f51565b820191906000526020600020905b815481529060010190602001808311610f3457829003601f168201915b50505050508152602001600382015481526020016004820154815260200160058201548152505081526020019060010190610e09565b50505050905090565b610f98612cdd565b6000600960003373ffffffffffffffffffffffffffffffffffffffff1673ffffffffffffffffffffffffffffffffffffffff1681526020019081526020016000205490506000811415610ff757610fed612cdd565b8092505050611165565b600860008281526020019081526020016000206040518060c00160405290816000820154815260200160018201805461102f9061437c565b80601f016020809104026020016040519081016040528092919081815260200182805461105b9061437c565b80156110a85780601f1061107d576101008083540402835291602001916110a8565b820191906000526020600020905b81548152906001019060200180831161108b57829003601f168201915b505050505081526020016002820180546110c19061437c565b80601f01602080910402602001604051908101604052809291908181526020018280546110ed9061437c565b801561113a5780601f1061110f5761010080835404028352916020019161113a565b820191906000526020600020905b81548152906001019060200180831161111d57829003601f168201915b5050505050815260200160038201548152602001600482015481526020016005820154815250509150505b90565b60606000600860008481526020019081526020016000206040518060c0016040529081600082015481526020016001820180546111a49061437c565b80601f01602080910402602001604051908101604052809291908181526020018280546111d09061437c565b801561121d5780601f106111f25761010080835404028352916020019161121d565b820191906000526020600020905b81548152906001019060200180831161120057829003601f168201915b505050505081526020016002820180546112369061437c565b80601f01602080910402602001604051908101604052809291908181526020018280546112629061437c565b80156112af5780601f10611284576101008083540402835291602001916112af565b820191906000526020600020905b81548152906001019060200180831161129257829003601f168201915b505050505081526020016003820154815260200160048201548152602001600582015481525050905060006112e78260600151612290565b905060006112f88360800151612290565b905060006113098460a00151612290565b9050600061134f856020015161131e89612290565b876040015187878760405160200161133b96959493929190613b15565b60405160208183030381529060405261243d565b90506000816040516020016113649190613bba565b6040516020818303038152906040529050809650505050505050919050565b6000600960003373ffffffffffffffffffffffffffffffffffffffff1673ffffffffffffffffffffffffffffffffffffffff16815260200190815260200160002054905060006008600083815260200190815260200160002090506114966040518060600160405280603c815260200161460a603c91398260010180546114099061437c565b80601f01602080910402602001604051908101604052809291908181526020018280546114359061437c565b80156114825780601f1061145757610100808354040283529160200191611482565b820191906000526020600020905b81548152906001019060200180831161146557829003601f168201915b5050505050836003015484600501546125fb565b61156e6040518060400160405280601b81526020017f426f73732025732068617320257320485020616e642025732041440000000000815250600a60000180546114df9061437c565b80601f016020809104026020016040519081016040528092919081815260200182805461150b9061437c565b80156115585780601f1061152d57610100808354040283529160200191611558565b820191906000526020600020905b81548152906001019060200180831161153b57829003601f168201915b5050505050600a60020154600a600401546125fb565b60008160030154116115b5576040517f08c379a00000000000000000000000000000000000000000000000000000000081526004016115ac90613fb5565b60405180910390fd5b6000600a60020154116115fd576040517f08c379a00000000000000000000000000000000000000000000000000000000081526004016115f490613f95565b60405180910390fd5b8060050154600a60020154101561161e576000600a6002018190555061163f565b8060050154600a60020160008282546116379190614292565b925050819055505b600a600401548160030154101561165f5760008160030181905550611680565b600a600401548160030160008282546116789190614292565b925050819055505b6116a760405180606001604052806024815260200161455260249139600a6002015461269d565b6116cd6040518060600160405280602681526020016145b660269139826003015461269d565b7f32bd565ee3f2cb5ddd742bbecd6048d3e9abe90b3827a40c2b72d232e71e3c9d33600a60020154836003015460405161170993929190613c43565b60405180910390a15050565b6000600560008473ffffffffffffffffffffffffffffffffffffffff1673ffffffffffffffffffffffffffffffffffffffff16815260200190815260200160002060008373ffffffffffffffffffffffffffffffffffffffff1673ffffffffffffffffffffffffffffffffffffffff16815260200190815260200160002060009054906101000a900460ff16905092915050565b60006117b56006612739565b90506117c13382612747565b6040518060c001604052808381526020016007848154811061180c577f4e487b7100000000000000000000000000000000000000000000000000000000600052603260045260246000fd5b906000526020600020906006020160010180546118289061437c565b80601f01602080910402602001604051908101604052809291908181526020018280546118549061437c565b80156118a15780601f10611876576101008083540402835291602001916118a1565b820191906000526020600020905b81548152906001019060200180831161188457829003601f168201915b50505050508152602001600784815481106118e5577f4e487b7100000000000000000000000000000000000000000000000000000000600052603260045260246000fd5b906000526020600020906006020160020180546119019061437c565b80601f016020809104026020016040519081016040528092919081815260200182805461192d9061437c565b801561197a5780601f1061194f5761010080835404028352916020019161197a565b820191906000526020600020905b81548152906001019060200180831161195d57829003601f168201915b50505050508152602001600784815481106119be577f4e487b7100000000000000000000000000000000000000000000000000000000600052603260045260246000fd5b906000526020600020906006020160030154815260200160078481548110611a0f577f4e487b7100000000000000000000000000000000000000000000000000000000600052603260045260246000fd5b906000526020600020906006020160040154815260200160078481548110611a60577f4e487b7100000000000000000000000000000000000000000000000000000000600052603260045260246000fd5b90600052602060002090600602016005015481525060086000838152602001908152602001600020600082015181600001556020820151816001019080519060200190611aae929190612d13565b506040820151816002019080519060200190611acb929190612d13565b50606082015181600301556080820151816004015560a08201518160050155905050611b106040518060600160405280602e81526020016145dc602e91398284612765565b80600960003373ffffffffffffffffffffffffffffffffffffffff1673ffffffffffffffffffffffffffffffffffffffff16815260200190815260200160002081905550611b5e6006611c3f565b7f4bc303fd457a97b4691b9af582ce71868a3d258638c8d4f8c60988a0f0bfb8cd338284604051611b9193929190613c43565b60405180910390a15050565b611c3984848484604051602401611bb79493929190613cd9565b6040516020818303038152906040527f8d142cdd000000000000000000000000000000000000000000000000000000007bffffffffffffffffffffffffffffffffffffffffffffffffffffffff19166020820180517bffffffffffffffffffffffffffffffffffffffffffffffffffffffff8381831617835250505050612804565b50505050565b6001816000016000828254019250508190555050565b60007f01ffc9a7000000000000000000000000000000000000000000000000000000007bffffffffffffffffffffffffffffffffffffffffffffffffffffffff1916827bffffffffffffffffffffffffffffffffffffffffffffffffffffffff1916149050919050565b611cc88161282d565b611d07576040517f08c379a0000000000000000000000000000000000000000000000000000000008152600401611cfe90613f55565b60405180910390fd5b50565b600033905090565b816004600083815260200190815260200160002060006101000a81548173ffffffffffffffffffffffffffffffffffffffff021916908373ffffffffffffffffffffffffffffffffffffffff160217905550808273ffffffffffffffffffffffffffffffffffffffff16611d85836108d9565b73ffffffffffffffffffffffffffffffffffffffff167f8c5be1e5ebec7d5bd14f71427d1e84f3dd0314c0f7b2291e5b200ac8c7c3b92560405160405180910390a45050565b600080611dd7836108d9565b90508073ffffffffffffffffffffffffffffffffffffffff168473ffffffffffffffffffffffffffffffffffffffff161480611e195750611e188185611715565b5b80611e5757508373ffffffffffffffffffffffffffffffffffffffff16611e3f846106fb565b73ffffffffffffffffffffffffffffffffffffffff16145b91505092915050565b8273ffffffffffffffffffffffffffffffffffffffff16611e80826108d9565b73ffffffffffffffffffffffffffffffffffffffff1614611ed6576040517f08c379a0000000000000000000000000000000000000000000000000000000008152600401611ecd90613e75565b60405180910390fd5b600073ffffffffffffffffffffffffffffffffffffffff168273ffffffffffffffffffffffffffffffffffffffff161415611f46576040517f08c379a0000000000000000000000000000000000000000000000000000000008152600401611f3d90613eb5565b60405180910390fd5b611f51838383612899565b611f5c600082611d12565b6001600360008573ffffffffffffffffffffffffffffffffffffffff1673ffffffffffffffffffffffffffffffffffffffff1681526020019081526020016000206000828254611fac9190614292565b925050819055506001600360008473ffffffffffffffffffffffffffffffffffffffff1673ffffffffffffffffffffffffffffffffffffffff168152602001908152602001600020600082825461200391906141b1565b92505081905550816002600083815260200190815260200160002060006101000a81548173ffffffffffffffffffffffffffffffffffffffff021916908373ffffffffffffffffffffffffffffffffffffffff160217905550808273ffffffffffffffffffffffffffffffffffffffff168473ffffffffffffffffffffffffffffffffffffffff167fddf252ad1be2c89b69c2b068fc378daa952ba7f163c4a11628f55a4df523b3ef60405160405180910390a46120c283838361289e565b505050565b8173ffffffffffffffffffffffffffffffffffffffff168373ffffffffffffffffffffffffffffffffffffffff161415612136576040517f08c379a000000000000000000000000000000000000000000000000000000000815260040161212d90613ed5565b60405180910390fd5b80600560008573ffffffffffffffffffffffffffffffffffffffff1673ffffffffffffffffffffffffffffffffffffffff16815260200190815260200160002060008473ffffffffffffffffffffffffffffffffffffffff1673ffffffffffffffffffffffffffffffffffffffff16815260200190815260200160002060006101000a81548160ff0219169083151502179055508173ffffffffffffffffffffffffffffffffffffffff168373ffffffffffffffffffffffffffffffffffffffff167f17307eab39ab6107e8899845ad3d59bd9653f200f220920489ca2b5937696c31836040516122279190613c9c565b60405180910390a3505050565b61223f848484611e60565b61224b848484846128a3565b61228a576040517f08c379a000000000000000000000000000000000000000000000000000000000815260040161228190613e55565b60405180910390fd5b50505050565b606060008214156122d8576040518060400160405280600181526020017f30000000000000000000000000000000000000000000000000000000000000008152509050612438565b600082905060005b6000821461230a5780806122f3906143ae565b915050600a826123039190614207565b91506122e0565b60008167ffffffffffffffff81111561234c577f4e487b7100000000000000000000000000000000000000000000000000000000600052604160045260246000fd5b6040519080825280601f01601f19166020018201604052801561237e5781602001600182028036833780820191505090505b5090505b60008514612431576001826123979190614292565b9150600a856123a691906143f7565b60306123b291906141b1565b60f81b8183815181106123ee577f4e487b7100000000000000000000000000000000000000000000000000000000600052603260045260246000fd5b60200101907effffffffffffffffffffffffffffffffffffffffffffffffffffffffffffff1916908160001a905350600a8561242a9190614207565b9450612382565b8093505050505b919050565b6060600082519050600081141561246657604051806020016040528060008152509150506125f6565b6000600360028361247791906141b1565b6124819190614207565b600461248d9190614238565b9050600060208261249e91906141b1565b67ffffffffffffffff8111156124dd577f4e487b7100000000000000000000000000000000000000000000000000000000600052604160045260246000fd5b6040519080825280601f01601f19166020018201604052801561250f5781602001600182028036833780820191505090505b5090506000604051806060016040528060408152602001614576604091399050600181016020830160005b868110156125b35760038101905062ffffff818a015116603f8160121c168401518060081b905060ff603f83600c1c1686015116810190508060081b905060ff603f8360061c1686015116810190508060081b905060ff603f831686015116810190508060e01b9050808452600484019350505061253a565b5060038606600181146125cd57600281146125dd576125e8565b613d3d60f01b60028303526125e8565b603d60f81b60018303525b508484525050819450505050505b919050565b612697848484846040516024016126159493929190613d33565b6040516020818303038152906040527fd5cf17d0000000000000000000000000000000000000000000000000000000007bffffffffffffffffffffffffffffffffffffffffffffffffffffffff19166020820180517bffffffffffffffffffffffffffffffffffffffffffffffffffffffff8381831617835250505050612804565b50505050565b61273582826040516024016126b3929190613de7565b6040516020818303038152906040527f9710a9d0000000000000000000000000000000000000000000000000000000007bffffffffffffffffffffffffffffffffffffffffffffffffffffffff19166020820180517bffffffffffffffffffffffffffffffffffffffffffffffffffffffff8381831617835250505050612804565b5050565b600081600001549050919050565b612761828260405180602001604052806000815250612a3a565b5050565b6127ff83838360405160240161277d93929190613e17565b6040516020818303038152906040527f969cdd03000000000000000000000000000000000000000000000000000000007bffffffffffffffffffffffffffffffffffffffffffffffffffffffff19166020820180517bffffffffffffffffffffffffffffffffffffffffffffffffffffffff8381831617835250505050612804565b505050565b60008151905060006a636f6e736f6c652e6c6f679050602083016000808483855afa5050505050565b60008073ffffffffffffffffffffffffffffffffffffffff166002600084815260200190815260200160002060009054906101000a900473ffffffffffffffffffffffffffffffffffffffff1673ffffffffffffffffffffffffffffffffffffffff1614159050919050565b505050565b505050565b60006128c48473ffffffffffffffffffffffffffffffffffffffff16612a95565b15612a2d578373ffffffffffffffffffffffffffffffffffffffff1663150b7a026128ed611d0a565b8786866040518563ffffffff1660e01b815260040161290f9493929190613bf7565b602060405180830381600087803b15801561292957600080fd5b505af192505050801561295a57506040513d601f19601f820116820180604052508101906129579190613057565b60015b6129dd573d806000811461298a576040519150601f19603f3d011682016040523d82523d6000602084013e61298f565b606091505b506000815114156129d5576040517f08c379a00000000000000000000000000000000000000000000000000000000081526004016129cc90613e55565b60405180910390fd5b805181602001fd5b63150b7a0260e01b7bffffffffffffffffffffffffffffffffffffffffffffffffffffffff1916817bffffffffffffffffffffffffffffffffffffffffffffffffffffffff191614915050612a32565b600190505b949350505050565b612a448383612ad4565b612a5160008484846128a3565b612a90576040517f08c379a0000000000000000000000000000000000000000000000000000000008152600401612a8790613e55565b60405180910390fd5b505050565b6000808273ffffffffffffffffffffffffffffffffffffffff16803b806020016040519081016040528181526000908060200190933c51119050919050565b600073ffffffffffffffffffffffffffffffffffffffff168273ffffffffffffffffffffffffffffffffffffffff161415612b44576040517f08c379a0000000000000000000000000000000000000000000000000000000008152600401612b3b90613f35565b60405180910390fd5b612b4d8161282d565b15612b8d576040517f08c379a0000000000000000000000000000000000000000000000000000000008152600401612b8490613e95565b60405180910390fd5b612b9960008383612899565b6001600360008473ffffffffffffffffffffffffffffffffffffffff1673ffffffffffffffffffffffffffffffffffffffff1681526020019081526020016000206000828254612be991906141b1565b92505081905550816002600083815260200190815260200160002060006101000a81548173ffffffffffffffffffffffffffffffffffffffff021916908373ffffffffffffffffffffffffffffffffffffffff160217905550808273ffffffffffffffffffffffffffffffffffffffff16600073ffffffffffffffffffffffffffffffffffffffff167fddf252ad1be2c89b69c2b068fc378daa952ba7f163c4a11628f55a4df523b3ef60405160405180910390a4612caa6000838361289e565b5050565b6040518060a0016040528060608152602001606081526020016000815260200160008152602001600081525090565b6040518060c001604052806000815260200160608152602001606081526020016000815260200160008152602001600081525090565b828054612d1f9061437c565b90600052602060002090601f016020900481019282612d415760008555612d88565b82601f10612d5a57805160ff1916838001178555612d88565b82800160010185558215612d88579182015b82811115612d87578251825591602001919060010190612d6c565b5b509050612d959190612d99565b5090565b5b80821115612db2576000816000905550600101612d9a565b5090565b6000612dc9612dc4846140f4565b6140c3565b905082815260208101848484011115612de157600080fd5b612dec84828561433a565b509392505050565b600081359050612e03816144f5565b92915050565b600081359050612e188161450c565b92915050565b600081359050612e2d81614523565b92915050565b600081519050612e4281614523565b92915050565b600082601f830112612e5957600080fd5b8135612e69848260208601612db6565b91505092915050565b600081359050612e818161453a565b92915050565b600060208284031215612e9957600080fd5b6000612ea784828501612df4565b91505092915050565b60008060408385031215612ec357600080fd5b6000612ed185828601612df4565b9250506020612ee285828601612df4565b9150509250929050565b600080600060608486031215612f0157600080fd5b6000612f0f86828701612df4565b9350506020612f2086828701612df4565b9250506040612f3186828701612e72565b9150509250925092565b60008060008060808587031215612f5157600080fd5b6000612f5f87828801612df4565b9450506020612f7087828801612df4565b9350506040612f8187828801612e72565b925050606085013567ffffffffffffffff811115612f9e57600080fd5b612faa87828801612e48565b91505092959194509250565b60008060408385031215612fc957600080fd5b6000612fd785828601612df4565b9250506020612fe885828601612e09565b9150509250929050565b6000806040838503121561300557600080fd5b600061301385828601612df4565b925050602061302485828601612e72565b9150509250929050565b60006020828403121561304057600080fd5b600061304e84828501612e1e565b91505092915050565b60006020828403121561306957600080fd5b600061307784828501612e33565b91505092915050565b60006020828403121561309257600080fd5b60006130a084828501612e72565b91505092915050565b60006130b583836139d7565b905092915050565b6130c6816142c6565b82525050565b60006130d782614134565b6130e18185614162565b9350836020820285016130f385614124565b8060005b8581101561312f578484038952815161311085826130a9565b945061311b83614155565b925060208a019950506001810190506130f7565b50829750879550505050505092915050565b61314a816142d8565b82525050565b600061315b8261413f565b6131658185614173565b9350613175818560208601614349565b61317e816144e4565b840191505092915050565b60006131948261414a565b61319e8185614184565b93506131ae818560208601614349565b6131b7816144e4565b840191505092915050565b60006131cd8261414a565b6131d78185614195565b93506131e7818560208601614349565b6131f0816144e4565b840191505092915050565b60006132068261414a565b61321081856141a6565b9350613220818560208601614349565b80840191505092915050565b6000613239600b836141a6565b91507f202d2d204e465420233a200000000000000000000000000000000000000000006000830152600b82019050919050565b6000613279603283614195565b91507f4552433732313a207472616e7366657220746f206e6f6e20455243373231526560008301527f63656976657220696d706c656d656e74657200000000000000000000000000006020830152604082019050919050565b60006132df602583614195565b91507f4552433732313a207472616e736665722066726f6d20696e636f72726563742060008301527f6f776e65720000000000000000000000000000000000000000000000000000006020830152604082019050919050565b6000613345601c83614195565b91507f4552433732313a20746f6b656e20616c7265616479206d696e746564000000006000830152602082019050919050565b6000613385600e836141a6565b91507f2c20226d61785f76616c7565223a0000000000000000000000000000000000006000830152600e82019050919050565b60006133c5602483614195565b91507f4552433732313a207472616e7366657220746f20746865207a65726f2061646460008301527f72657373000000000000000000000000000000000000000000000000000000006020830152604082019050919050565b600061342b601983614195565b91507f4552433732313a20617070726f766520746f2063616c6c6572000000000000006000830152602082019050919050565b600061346b602983614195565b91507f4552433732313a2061646472657373207a65726f206973206e6f74206120766160008301527f6c6964206f776e657200000000000000000000000000000000000000000000006020830152604082019050919050565b60006134d16004836141a6565b91507f7d205d7d000000000000000000000000000000000000000000000000000000006000830152600482019050919050565b6000613511603e83614195565b91507f4552433732313a20617070726f76652063616c6c6572206973206e6f7420746f60008301527f6b656e206f776e6572206e6f7220617070726f76656420666f7220616c6c00006020830152604082019050919050565b6000613577602083614195565b91507f4552433732313a206d696e7420746f20746865207a65726f20616464726573736000830152602082019050919050565b60006135b7600a836141a6565b91507f7b226e616d65223a2022000000000000000000000000000000000000000000006000830152600a82019050919050565b60006135f7601883614195565b91507f4552433732313a20696e76616c696420746f6b656e20494400000000000000006000830152602082019050919050565b6000613637602183614195565b91507f4552433732313a20617070726f76616c20746f2063757272656e74206f776e6560008301527f72000000000000000000000000000000000000000000000000000000000000006020830152604082019050919050565b600061369d601f83614195565b91507f4572726f723a20426f737320697320616c7265616479206465666561746564006000830152602082019050919050565b60006136dd602e83614195565b91507f4572726f723a20506c61796572206d757374206861766520736f6d652048502060008301527f746f2061747461636b20626f73730000000000000000000000000000000000006020830152604082019050919050565b6000613743601d836141a6565b91507f646174613a6170706c69636174696f6e2f6a736f6e3b6261736536342c0000006000830152601d82019050919050565b60006137836069836141a6565b91507f222c20226465736372697074696f6e223a20225468697320697320616e204e4660008301527f542074686174206c6574732070656f706c6520706c617920696e20746865206760208301527f616d65204d657461766572736520536c6179657221222c2022696d616765223a60408301527f2022697066733a2f2f00000000000000000000000000000000000000000000006060830152606982019050919050565b6000613835603d836141a6565b91507f222c202261747472696275746573223a205b207b202274726169745f7479706560008301527f223a20224865616c746820506f696e7473222c202276616c7565223a200000006020830152603d82019050919050565b600061389b602d836141a6565b91507f7d2c207b202274726169745f74797065223a202241747461636b2044616d616760008301527f65222c202276616c7565223a20000000000000000000000000000000000000006020830152602d82019050919050565b6000613901602e83614195565b91507f4552433732313a2063616c6c6572206973206e6f7420746f6b656e206f776e6560008301527f72206e6f7220617070726f7665640000000000000000000000000000000000006020830152604082019050919050565b600060a08301600083015184820360008601526139778282613189565b915050602083015184820360208601526139918282613189565b91505060408301516139a66040860182613af7565b5060608301516139b96060860182613af7565b5060808301516139cc6080860182613af7565b508091505092915050565b600060c0830160008301516139ef6000860182613af7565b5060208301518482036020860152613a078282613189565b91505060408301518482036040860152613a218282613189565b9150506060830151613a366060860182613af7565b506080830151613a496080860182613af7565b5060a0830151613a5c60a0860182613af7565b508091505092915050565b600060c083016000830151613a7f6000860182613af7565b5060208301518482036020860152613a978282613189565b91505060408301518482036040860152613ab18282613189565b9150506060830151613ac66060860182613af7565b506080830151613ad96080860182613af7565b5060a0830151613aec60a0860182613af7565b508091505092915050565b613b0081614330565b82525050565b613b0f81614330565b82525050565b6000613b20826135aa565b9150613b2c82896131fb565b9150613b378261322c565b9150613b4382886131fb565b9150613b4e82613776565b9150613b5a82876131fb565b9150613b6582613828565b9150613b7182866131fb565b9150613b7c82613378565b9150613b8882856131fb565b9150613b938261388e565b9150613b9f82846131fb565b9150613baa826134c4565b9150819050979650505050505050565b6000613bc582613736565b9150613bd182846131fb565b915081905092915050565b6000602082019050613bf160008301846130bd565b92915050565b6000608082019050613c0c60008301876130bd565b613c1960208301866130bd565b613c266040830185613b06565b8181036060830152613c388184613150565b905095945050505050565b6000606082019050613c5860008301866130bd565b613c656020830185613b06565b613c726040830184613b06565b949350505050565b60006020820190508181036000830152613c9481846130cc565b905092915050565b6000602082019050613cb16000830184613141565b92915050565b60006020820190508181036000830152613cd181846131c2565b905092915050565b60006080820190508181036000830152613cf381876131c2565b90508181036020830152613d0781866131c2565b9050613d166040830185613b06565b8181036060830152613d2881846131c2565b905095945050505050565b60006080820190508181036000830152613d4d81876131c2565b90508181036020830152613d6181866131c2565b9050613d706040830185613b06565b613d7d6060830184613b06565b95945050505050565b600060a0820190508181036000830152613da081886131c2565b90508181036020830152613db481876131c2565b9050613dc36040830186613b06565b613dd06060830185613b06565b613ddd6080830184613b06565b9695505050505050565b60006040820190508181036000830152613e0181856131c2565b9050613e106020830184613b06565b9392505050565b60006060820190508181036000830152613e3181866131c2565b9050613e406020830185613b06565b613e4d6040830184613b06565b949350505050565b60006020820190508181036000830152613e6e8161326c565b9050919050565b60006020820190508181036000830152613e8e816132d2565b9050919050565b60006020820190508181036000830152613eae81613338565b9050919050565b60006020820190508181036000830152613ece816133b8565b9050919050565b60006020820190508181036000830152613eee8161341e565b9050919050565b60006020820190508181036000830152613f0e8161345e565b9050919050565b60006020820190508181036000830152613f2e81613504565b9050919050565b60006020820190508181036000830152613f4e8161356a565b9050919050565b60006020820190508181036000830152613f6e816135ea565b9050919050565b60006020820190508181036000830152613f8e8161362a565b9050919050565b60006020820190508181036000830152613fae81613690565b9050919050565b60006020820190508181036000830152613fce816136d0565b9050919050565b60006020820190508181036000830152613fee816138f4565b9050919050565b6000602082019050818103600083015261400f818461395a565b905092915050565b600060208201905081810360008301526140318184613a67565b905092915050565b600060208201905061404e6000830184613b06565b92915050565b600060c0820190506140696000830189613b06565b818103602083015261407b81886131c2565b9050818103604083015261408f81876131c2565b905061409e6060830186613b06565b6140ab6080830185613b06565b6140b860a0830184613b06565b979650505050505050565b6000604051905081810181811067ffffffffffffffff821117156140ea576140e96144b5565b5b8060405250919050565b600067ffffffffffffffff82111561410f5761410e6144b5565b5b601f19601f8301169050602081019050919050565b6000819050602082019050919050565b600081519050919050565b600081519050919050565b600081519050919050565b6000602082019050919050565b600082825260208201905092915050565b600082825260208201905092915050565b600082825260208201905092915050565b600082825260208201905092915050565b600081905092915050565b60006141bc82614330565b91506141c783614330565b9250827fffffffffffffffffffffffffffffffffffffffffffffffffffffffffffffffff038211156141fc576141fb614428565b5b828201905092915050565b600061421282614330565b915061421d83614330565b92508261422d5761422c614457565b5b828204905092915050565b600061424382614330565b915061424e83614330565b9250817fffffffffffffffffffffffffffffffffffffffffffffffffffffffffffffffff048311821515161561428757614286614428565b5b828202905092915050565b600061429d82614330565b91506142a883614330565b9250828210156142bb576142ba614428565b5b828203905092915050565b60006142d182614310565b9050919050565b60008115159050919050565b60007fffffffff0000000000000000000000000000000000000000000000000000000082169050919050565b600073ffffffffffffffffffffffffffffffffffffffff82169050919050565b6000819050919050565b82818337600083830152505050565b60005b8381101561436757808201518184015260208101905061434c565b83811115614376576000848401525b50505050565b6000600282049050600182168061439457607f821691505b602082108114156143a8576143a7614486565b5b50919050565b60006143b982614330565b91507fffffffffffffffffffffffffffffffffffffffffffffffffffffffffffffffff8214156143ec576143eb614428565b5b600182019050919050565b600061440282614330565b915061440d83614330565b92508261441d5761441c614457565b5b828206905092915050565b7f4e487b7100000000000000000000000000000000000000000000000000000000600052601160045260246000fd5b7f4e487b7100000000000000000000000000000000000000000000000000000000600052601260045260246000fd5b7f4e487b7100000000000000000000000000000000000000000000000000000000600052602260045260246000fd5b7f4e487b7100000000000000000000000000000000000000000000000000000000600052604160045260246000fd5b6000601f19601f8301169050919050565b6144fe816142c6565b811461450957600080fd5b50565b614515816142d8565b811461452057600080fd5b50565b61452c816142e4565b811461453757600080fd5b50565b61454381614330565b811461454e57600080fd5b5056fe506c617965722061747461636b656420626f73732e204e657720626f73732068702025734142434445464748494a4b4c4d4e4f505152535455565758595a6162636465666768696a6b6c6d6e6f707172737475767778797a303132333435363738392b2f426f73732061747461636b656420706c617965722e204e657720706c617965722068702025734d696e746564204e465420772f20746f6b656e496420257320616e6420636861726163746572496e6465782025730a506c6179657220772f206368617261637465722025732061626f757420746f2061747461636b2e2048617320257320485020616e64202573204144a264697066735822122069bcc80fae8d90c233f2fef2bd83425950afe9adadac4d874b0a86e423b43aaf64736f6c63430008000033446f6e6520696e697469616c697a696e6720257320772f2048502025732c20696d67202573446f6e6520696e697469616c697a69696e6720626f737320257320772f2048502025732c20696d67202573",
  "linkReferences": {},
  "deployedLinkReferences": {}
}